{
  "contractName": "CulinaryLegacyRecipe",
  "abi": [
    {
      "constant": true,
      "inputs": [
        {
          "name": "",
          "type": "address"
        }
      ],
      "name": "registeredUser",
      "outputs": [
        {
          "name": "",
          "type": "uint256"
        }
      ],
      "payable": false,
      "stateMutability": "view",
      "type": "function"
    },
    {
      "constant": true,
      "inputs": [],
      "name": "contract_owner",
      "outputs": [
        {
          "name": "",
          "type": "address"
        }
      ],
      "payable": false,
      "stateMutability": "view",
      "type": "function"
    },
    {
      "constant": true,
      "inputs": [],
      "name": "recipeCounts",
      "outputs": [
        {
          "name": "",
          "type": "uint256"
        }
      ],
      "payable": false,
      "stateMutability": "view",
      "type": "function"
    },
    {
      "constant": true,
      "inputs": [
        {
          "name": "",
          "type": "uint256"
        }
      ],
      "name": "recipeOwner",
      "outputs": [
        {
          "name": "",
          "type": "address"
        }
      ],
      "payable": false,
      "stateMutability": "view",
      "type": "function"
    },
    {
      "constant": true,
      "inputs": [
        {
          "name": "",
          "type": "address"
        }
      ],
      "name": "ownedRecipesCount",
      "outputs": [
        {
          "name": "",
          "type": "uint256"
        }
      ],
      "payable": false,
      "stateMutability": "view",
      "type": "function"
    },
    {
      "constant": true,
      "inputs": [],
      "name": "numberOfUsers",
      "outputs": [
        {
          "name": "",
          "type": "uint256"
        }
      ],
      "payable": false,
      "stateMutability": "view",
      "type": "function"
    },
    {
      "constant": true,
      "inputs": [
        {
          "name": "",
          "type": "uint256"
        }
      ],
      "name": "recipeMap",
      "outputs": [
        {
          "name": "recipeID",
          "type": "uint256"
        },
        {
          "name": "price",
          "type": "uint256"
        }
      ],
      "payable": false,
      "stateMutability": "view",
      "type": "function"
    },
    {
      "inputs": [],
      "payable": false,
      "stateMutability": "nonpayable",
      "type": "constructor"
    },
    {
      "anonymous": false,
      "inputs": [
        {
          "indexed": true,
          "name": "from",
          "type": "address"
        },
        {
          "indexed": true,
          "name": "to",
          "type": "address"
        },
        {
          "indexed": true,
          "name": "tokenId",
          "type": "uint256"
        }
      ],
      "name": "Transfer",
      "type": "event"
    },
    {
      "anonymous": false,
      "inputs": [
        {
          "indexed": true,
          "name": "seller",
          "type": "address"
        },
        {
          "indexed": true,
          "name": "buyer",
          "type": "address"
        },
        {
          "indexed": false,
          "name": "recipeID",
          "type": "uint256"
        }
      ],
      "name": "recipeRequestCompleted",
      "type": "event"
    },
    {
      "anonymous": false,
      "inputs": [
        {
          "indexed": true,
          "name": "seller",
          "type": "address"
        },
        {
          "indexed": true,
          "name": "buyer",
          "type": "address"
        },
        {
          "indexed": false,
          "name": "recipeID",
          "type": "uint256"
        }
      ],
      "name": "recipeRequestDenied",
      "type": "event"
    },
    {
      "anonymous": false,
      "inputs": [
        {
          "indexed": true,
          "name": "seller",
          "type": "address"
        },
        {
          "indexed": true,
          "name": "buyer",
          "type": "address"
        },
        {
          "indexed": false,
          "name": "recipeID",
          "type": "uint256"
        }
      ],
      "name": "recipeRequest",
      "type": "event"
    },
    {
      "anonymous": false,
      "inputs": [
        {
          "indexed": false,
          "name": "from",
          "type": "address"
        },
        {
          "indexed": false,
          "name": "message",
          "type": "string"
        }
      ],
      "name": "_register",
      "type": "event"
    },
    {
      "constant": true,
      "inputs": [],
      "name": "balanceOf",
      "outputs": [
        {
          "name": "",
          "type": "uint256"
        }
      ],
      "payable": false,
      "stateMutability": "view",
      "type": "function"
    },
    {
      "constant": false,
      "inputs": [],
      "name": "register",
      "outputs": [],
      "payable": true,
      "stateMutability": "payable",
      "type": "function"
    },
    {
      "constant": false,
      "inputs": [
        {
          "name": "userID",
          "type": "address"
        }
      ],
      "name": "unregisterMember",
      "outputs": [],
      "payable": false,
      "stateMutability": "nonpayable",
      "type": "function"
    },
    {
      "constant": false,
      "inputs": [],
      "name": "selfUnregister",
      "outputs": [],
      "payable": false,
      "stateMutability": "nonpayable",
      "type": "function"
    },
    {
      "constant": false,
      "inputs": [
        {
          "name": "owner",
          "type": "address"
        },
        {
          "name": "price",
          "type": "uint256"
        }
      ],
      "name": "addRecipe",
      "outputs": [],
      "payable": false,
      "stateMutability": "nonpayable",
      "type": "function"
    },
    {
      "constant": false,
      "inputs": [
        {
          "name": "recipeID",
          "type": "uint256"
        },
        {
          "name": "seller",
          "type": "address"
        }
      ],
      "name": "request",
      "outputs": [],
      "payable": true,
      "stateMutability": "payable",
      "type": "function"
    },
    {
      "constant": false,
      "inputs": [
        {
          "name": "fromSeller",
          "type": "address"
        },
        {
          "name": "toBuyer",
          "type": "address"
        },
        {
          "name": "recipeID",
          "type": "uint256"
        }
      ],
      "name": "response",
      "outputs": [],
      "payable": false,
      "stateMutability": "nonpayable",
      "type": "function"
    },
    {
      "constant": false,
      "inputs": [],
      "name": "terminateContract",
      "outputs": [],
      "payable": false,
      "stateMutability": "nonpayable",
      "type": "function"
    },
    {
      "constant": true,
      "inputs": [
        {
          "name": "recipeId",
          "type": "uint256"
        }
      ],
      "name": "ownerOf",
      "outputs": [
        {
          "name": "",
          "type": "address"
        }
      ],
      "payable": false,
      "stateMutability": "view",
      "type": "function"
    },
    {
      "constant": true,
      "inputs": [],
      "name": "recipeCountsLength",
      "outputs": [
        {
          "name": "",
          "type": "uint256"
        }
      ],
      "payable": false,
      "stateMutability": "view",
      "type": "function"
    }
  ],
  "bytecode": "0x608060405234801561001057600080fd5b5033600260006101000a81548173ffffffffffffffffffffffffffffffffffffffff021916908373ffffffffffffffffffffffffffffffffffffffff1602179055506112eb806100616000396000f3fe6080604052600436106100fe5760003560e01c80636352211e1161009557806375ce46a71161006457806375ce46a71461042e578063770249ba146104595780639ad8a980146104af578063cc6bd3db146104fd578063fc45f97614610578576100fe565b80636352211e146102f857806367123f5a146103735780636e918cec146103d8578063722713f714610403576100fe565b806333e925d7116100d157806333e925d7146101a0578063384f58eb146101fb57806347f4a1d11461025257806358b2fc4f1461027d576100fe565b806304f0bbb6146101035780630961b61a1461011a5780631aa3a0081461017f5780632fd949ca14610189575b600080fd5b34801561010f57600080fd5b506101186105c9565b005b34801561012657600080fd5b506101696004803603602081101561013d57600080fd5b81019080803573ffffffffffffffffffffffffffffffffffffffff1690602001909291905050506106b2565b6040518082815260200191505060405180910390f35b6101876106ca565b005b34801561019557600080fd5b5061019e6107bf565b005b3480156101ac57600080fd5b506101f9600480360360408110156101c357600080fd5b81019080803573ffffffffffffffffffffffffffffffffffffffff16906020019092919080359060200190929190505050610832565b005b34801561020757600080fd5b506102106108df565b604051808273ffffffffffffffffffffffffffffffffffffffff1673ffffffffffffffffffffffffffffffffffffffff16815260200191505060405180910390f35b34801561025e57600080fd5b50610267610905565b6040518082815260200191505060405180910390f35b34801561028957600080fd5b506102b6600480360360208110156102a057600080fd5b810190808035906020019092919050505061090b565b604051808273ffffffffffffffffffffffffffffffffffffffff1673ffffffffffffffffffffffffffffffffffffffff16815260200191505060405180910390f35b34801561030457600080fd5b506103316004803603602081101561031b57600080fd5b810190808035906020019092919050505061093e565b604051808273ffffffffffffffffffffffffffffffffffffffff1673ffffffffffffffffffffffffffffffffffffffff16815260200191505060405180910390f35b34801561037f57600080fd5b506103c26004803603602081101561039657600080fd5b81019080803573ffffffffffffffffffffffffffffffffffffffff169060200190929190505050610a23565b6040518082815260200191505060405180910390f35b3480156103e457600080fd5b506103ed610a3b565b6040518082815260200191505060405180910390f35b34801561040f57600080fd5b50610418610a44565b6040518082815260200191505060405180910390f35b34801561043a57600080fd5b50610443610a8b565b6040518082815260200191505060405180910390f35b34801561046557600080fd5b506104926004803603602081101561047c57600080fd5b8101908080359060200190929190505050610a91565b604051808381526020018281526020019250505060405180910390f35b6104fb600480360360408110156104c557600080fd5b8101908080359060200190929190803573ffffffffffffffffffffffffffffffffffffffff169060200190929190505050610ab5565b005b34801561050957600080fd5b506105766004803603606081101561052057600080fd5b81019080803573ffffffffffffffffffffffffffffffffffffffff169060200190929190803573ffffffffffffffffffffffffffffffffffffffff16906020019092919080359060200190929190505050610d4a565b005b34801561058457600080fd5b506105c76004803603602081101561059b57600080fd5b81019080803573ffffffffffffffffffffffffffffffffffffffff169060200190929190505050610f87565b005b6001600360003373ffffffffffffffffffffffffffffffffffffffff1673ffffffffffffffffffffffffffffffffffffffff168152602001908152602001600020541461061557600080fd5b600260009054906101000a900473ffffffffffffffffffffffffffffffffffffffff1673ffffffffffffffffffffffffffffffffffffffff163373ffffffffffffffffffffffffffffffffffffffff16146106b0576000600360003373ffffffffffffffffffffffffffffffffffffffff1673ffffffffffffffffffffffffffffffffffffffff168152602001908152602001600020819055505b565b60036020528060005260406000206000915090505481565b6001600360003373ffffffffffffffffffffffffffffffffffffffff1673ffffffffffffffffffffffffffffffffffffffff168152602001908152602001600020819055506001600081548092919060010191905055507faca1d472537d21a358ff901602392206dbb409c2c9046cd628c471a87a6b7d7633604051808273ffffffffffffffffffffffffffffffffffffffff1673ffffffffffffffffffffffffffffffffffffffff16815260200180602001828103825260158152602001807f7265676973746572207375636365737366756c6c7900000000000000000000008152506020019250505060405180910390a1565b600260009054906101000a900473ffffffffffffffffffffffffffffffffffffffff1673ffffffffffffffffffffffffffffffffffffffff163373ffffffffffffffffffffffffffffffffffffffff161461081957600080fd5b3373ffffffffffffffffffffffffffffffffffffffff16ff5b604051806040016040528060005481526020018281525060046000805481526020019081526020016000206000820151816000015560208201518160010155905050610880826000546110de565b600160005401600081905550600660008373ffffffffffffffffffffffffffffffffffffffff1673ffffffffffffffffffffffffffffffffffffffff168152602001908152602001600020600081548092919060010191905055505050565b600260009054906101000a900473ffffffffffffffffffffffffffffffffffffffff1681565b60005481565b60056020528060005260406000206000915054906101000a900473ffffffffffffffffffffffffffffffffffffffff1681565b6000806005600084815260200190815260200160002060009054906101000a900473ffffffffffffffffffffffffffffffffffffffff169050600073ffffffffffffffffffffffffffffffffffffffff168173ffffffffffffffffffffffffffffffffffffffff161415610a1a576040517f08c379a000000000000000000000000000000000000000000000000000000000815260040180806020018281038252600d8152602001807f4e6f41737365744578697374730000000000000000000000000000000000000081525060200191505060405180910390fd5b80915050919050565b60066020528060005260406000206000915090505481565b60008054905090565b6000600660003373ffffffffffffffffffffffffffffffffffffffff1673ffffffffffffffffffffffffffffffffffffffff16815260200190815260200160002054905090565b60015481565b60046020528060005260406000206000915090508060000154908060010154905082565b8073ffffffffffffffffffffffffffffffffffffffff166005600084815260200190815260200160002060009054906101000a900473ffffffffffffffffffffffffffffffffffffffff1673ffffffffffffffffffffffffffffffffffffffff1614610b89576040517f08c379a00000000000000000000000000000000000000000000000000000000081526004018080602001828103825260118152602001807f4e6f745468655265636970654f776e657200000000000000000000000000000081525060200191505060405180910390fd5b336005600084815260200190815260200160002060006101000a81548173ffffffffffffffffffffffffffffffffffffffff021916908373ffffffffffffffffffffffffffffffffffffffff1602179055508073ffffffffffffffffffffffffffffffffffffffff166108fc670de0b6b3a76400006004600086815260200190815260200160002060010154029081150290604051600060405180830381858888f19350505050158015610c41573d6000803e3d6000fd5b50600660003373ffffffffffffffffffffffffffffffffffffffff1673ffffffffffffffffffffffffffffffffffffffff16815260200190815260200160002060008154809291906001019190505550600660008273ffffffffffffffffffffffffffffffffffffffff1673ffffffffffffffffffffffffffffffffffffffff16815260200190815260200160002060008154809291906001900391905055508073ffffffffffffffffffffffffffffffffffffffff163373ffffffffffffffffffffffffffffffffffffffff167fa6a37d3abef4786d38dbd76e243dd347c9b8861e30760d2890a6e1d2bfab9bef846040518082815260200191505060405180910390a35050565b6001600360008473ffffffffffffffffffffffffffffffffffffffff1673ffffffffffffffffffffffffffffffffffffffff1681526020019081526020016000205414610dfb578173ffffffffffffffffffffffffffffffffffffffff168373ffffffffffffffffffffffffffffffffffffffff167f8f61f052537f0bf056f967804f44154393ca499d4bf2a9b37cd68a4dd6c49b41836040518082815260200191505060405180910390a3600080fd5b8273ffffffffffffffffffffffffffffffffffffffff166005600083815260200190815260200160002060009054906101000a900473ffffffffffffffffffffffffffffffffffffffff1673ffffffffffffffffffffffffffffffffffffffff1614610ecb578173ffffffffffffffffffffffffffffffffffffffff168373ffffffffffffffffffffffffffffffffffffffff167f8f61f052537f0bf056f967804f44154393ca499d4bf2a9b37cd68a4dd6c49b41836040518082815260200191505060405180910390a3600080fd5b336005600083815260200190815260200160002060006101000a81548173ffffffffffffffffffffffffffffffffffffffff021916908373ffffffffffffffffffffffffffffffffffffffff1602179055508173ffffffffffffffffffffffffffffffffffffffff168373ffffffffffffffffffffffffffffffffffffffff167f8103e86d08623c78d70b23f063c1fa005aa6b8b12351ac531884890653656578836040518082815260200191505060405180910390a3505050565b600260009054906101000a900473ffffffffffffffffffffffffffffffffffffffff1673ffffffffffffffffffffffffffffffffffffffff163373ffffffffffffffffffffffffffffffffffffffff1614610fe157600080fd5b6000600360008373ffffffffffffffffffffffffffffffffffffffff1673ffffffffffffffffffffffffffffffffffffffff1681526020019081526020016000205414611096576040517f08c379a00000000000000000000000000000000000000000000000000000000081526004018080602001828103825260138152602001807f55736572206e6f7420726567697374657265640000000000000000000000000081525060200191505060405180910390fd5b6000600360008373ffffffffffffffffffffffffffffffffffffffff1673ffffffffffffffffffffffffffffffffffffffff1681526020019081526020016000208190555050565b600073ffffffffffffffffffffffffffffffffffffffff168273ffffffffffffffffffffffffffffffffffffffff161415611181576040517f08c379a00000000000000000000000000000000000000000000000000000000081526004018080602001828103825260138152602001807f5a65726f416464726573734d696e6974696e670000000000000000000000000081525060200191505060405180910390fd5b61118a81611253565b156111fd576040517f08c379a000000000000000000000000000000000000000000000000000000000815260040180806020018281038252600d8152602001807f416c72656164794d696e7465640000000000000000000000000000000000000081525060200191505060405180910390fd5b816005600083815260200190815260200160002060006101000a81548173ffffffffffffffffffffffffffffffffffffffff021916908373ffffffffffffffffffffffffffffffffffffffff1602179055505050565b60008073ffffffffffffffffffffffffffffffffffffffff166005600084815260200190815260200160002060009054906101000a900473ffffffffffffffffffffffffffffffffffffffff1673ffffffffffffffffffffffffffffffffffffffff161415905091905056fea165627a7a72305820585441b7483877194ae000a375ed7876c2991f1d3b5389511c83f31caea9180e0029",
  "source": "//SPDX-License-Identifier: UNLICENSED\npragma solidity >=0.4.22 <0.9.0;\nimport \"./helper_contracts/ERC721.sol\";\n\ncontract CulinaryLegacyRecipe {\n    //##############Data Structure#####################\n\tstruct Recipe {\n        uint256 recipeID; \n        uint256 price;\n    }\n\n    uint256 public recipeCounts; //increment id for recipe\n    uint256 public numberOfUsers; \n\n    address public contract_owner;\n    mapping(address => uint256) public registeredUser; //keeping track registered user (address => 0/1)\n    mapping(uint256 => Recipe) public recipeMap; // recipeId -> recipe object\n    mapping(uint256 => address) public recipeOwner; //recipeId -> creator // different recipeId shares the same creator\n    //mapping(uint256 => uint256) public recipeNames; //recipeID -> id given by users\n    mapping(address => uint256) public ownedRecipesCount; // address -> number of recipes owned // this is for counting balance \n\n    //#########Event and Modifier##############\n    \n    //Events\n    event Transfer(address indexed from, address indexed to, uint256 indexed tokenId);\n    event recipeRequestCompleted(address indexed seller, address indexed buyer, uint recipeID); \n    event recipeRequestDenied(address indexed seller, address indexed buyer, uint recipeID); \n    event recipeRequest(address indexed seller, address indexed buyer, uint recipeID); \n    event _register(address from, string message);\n\n    modifier onlyContractOwner(){\n        require(msg.sender == contract_owner);\n        _;\n    }\n    modifier onlyRecipeOwner(uint recipdeId){\n        require(msg.sender == recipeOwner[recipdeId]);\n        _;\n    }\n    modifier onlyRegisteredUser(){\n        require(registeredUser[msg.sender] == 1);\n        _;\n    }\n\n    //#########Functions###############\n    constructor() public{\n        contract_owner = msg.sender;\n    }\n\n   function balanceOf() public view returns (uint256) {\n        return ownedRecipesCount[msg.sender];\n    }\n\n\n    function register() public payable {\n        registeredUser[msg.sender] = 1;\n        numberOfUsers++; \n        emit _register(msg.sender, \"register successfully\");\n    }\n\n    function unregisterMember(address userID) onlyContractOwner public{\n        require(registeredUser[userID] == 0, \"User not registered\"); \n        registeredUser[userID] = 0;\n    }\n    \n    //self-unregister onself from the contract\n    function selfUnregister() public onlyRegisteredUser{\n        if (msg.sender != contract_owner){\n            registeredUser[msg.sender] = 0;\n        }\n    }\n    \n    //Create new recipe for sale\n    //remove id as recipeCounts is automatically incremented\n    function addRecipe(address owner, uint price) public {\n        recipeMap[recipeCounts] = Recipe(recipeCounts, price);\n        //recipeNames[recipeCounts] = id; \n        mint(owner,recipeCounts);\n        recipeCounts = recipeCounts+1;\n        ownedRecipesCount[owner]++; \n    }\n    function mint(address to, uint256 recipeId) internal {\n        require(to != address(0), \"ZeroAddressMiniting\");\n        require(!exists(recipeId), \"AlreadyMinted\");\n        recipeOwner[recipeId] = to;\n        //emit Transfer(address(0), to, assetId);\n    }\n    \n    function request(uint recipeID,  address payable seller) payable public{\n        require(recipeOwner[recipeID] == seller, \"NotTheRecipeOwner\");\n        recipeOwner[recipeID]=msg.sender;\n        seller.transfer(recipeMap[recipeID].price * 1000000000000000000);\n        ownedRecipesCount[msg.sender]++; \n        ownedRecipesCount[seller]--; \n        emit recipeRequest(msg.sender , seller, recipeID);\n    }\n\n    function response(address fromSeller, address toBuyer, uint recipeID) public{\n        // if buyer not registered -> revert + announce cancellation \n        if (registeredUser[toBuyer] != 1) {\n            emit recipeRequestDenied(fromSeller, toBuyer, recipeID);\n            revert(); \n        } \n        // if seller does not own recipe -> cancel (for some reason the onlyRecipeOwner is triggering the compiler??)\n        if (recipeOwner[recipeID] != fromSeller) {\n            emit recipeRequestDenied(fromSeller, toBuyer, recipeID);\n            revert(); \n        }\n        // else -> announce completion + transfer ownership \n        recipeOwner[recipeID] = msg.sender; \n        emit recipeRequestCompleted(fromSeller,toBuyer,recipeID);\n    }\n\n    function terminateContract () onlyContractOwner public{\n        selfdestruct(msg.sender);\n    }\n\n    //for testing purpose\n    //function ownerOf(uint256 recipeId) onlyRecipeOwner(recipeId) public view returns (address)\n    function ownerOf(uint256 recipeId) public view returns (address) {\n        address owner = recipeOwner[recipeId];\n        require(owner != address(0), \"NoAssetExists\");\n        return owner;\n    }\n\n    function recipeCountsLength() public view returns (uint) {\n        return recipeCounts;\n    }\n    //########Functions used by other functions##################\n    \n    function exists(uint256 recipeId) internal view returns (bool) {\n        return recipeOwner[recipeId] != address(0);\n    }\n}",
  "sourcePath": "/Users/Pan2k17/Desktop/CulinaryLegacy/culinary-contract/contracts/Culinary.sol",
  "compiler": {
    "name": "solc",
    "version": "0.5.8+commit.23d335f2.Emscripten.clang"
  },
  "schemaVersion": "3.4.13",
  "updatedAt": "2023-05-13T22:54:57.670Z",
  "devdoc": {
    "methods": {}
  },
  "userdoc": {
    "methods": {}
  }
}