{
  "contractName": "CulinaryLegacyRecipe",
  "abi": [
    {
      "constant": true,
      "inputs": [
        {
          "name": "interfaceId",
          "type": "bytes4"
        }
      ],
      "name": "supportsInterface",
      "outputs": [
        {
          "name": "",
          "type": "bool"
        }
      ],
      "payable": false,
      "stateMutability": "view",
      "type": "function"
    },
    {
      "constant": true,
      "inputs": [
        {
          "name": "tokenId",
          "type": "uint256"
        }
      ],
      "name": "getApproved",
      "outputs": [
        {
          "name": "",
          "type": "address"
        }
      ],
      "payable": false,
      "stateMutability": "view",
      "type": "function"
    },
    {
      "constant": false,
      "inputs": [
        {
          "name": "to",
          "type": "address"
        },
        {
          "name": "tokenId",
          "type": "uint256"
        }
      ],
      "name": "approve",
      "outputs": [],
      "payable": false,
      "stateMutability": "nonpayable",
      "type": "function"
    },
    {
      "constant": false,
      "inputs": [
        {
          "name": "from",
          "type": "address"
        },
        {
          "name": "to",
          "type": "address"
        },
        {
          "name": "tokenId",
          "type": "uint256"
        }
      ],
      "name": "transferFrom",
      "outputs": [],
      "payable": false,
      "stateMutability": "nonpayable",
      "type": "function"
    },
    {
      "constant": true,
      "inputs": [],
      "name": "contract_owner",
      "outputs": [
        {
          "name": "",
          "type": "address"
        }
      ],
      "payable": false,
      "stateMutability": "view",
      "type": "function"
    },
    {
      "constant": false,
      "inputs": [
        {
          "name": "from",
          "type": "address"
        },
        {
          "name": "to",
          "type": "address"
        },
        {
          "name": "tokenId",
          "type": "uint256"
        }
      ],
      "name": "safeTransferFrom",
      "outputs": [],
      "payable": false,
      "stateMutability": "nonpayable",
      "type": "function"
    },
    {
      "constant": true,
      "inputs": [],
      "name": "recipeCounts",
      "outputs": [
        {
          "name": "",
          "type": "uint256"
        }
      ],
      "payable": false,
      "stateMutability": "view",
      "type": "function"
    },
    {
      "constant": true,
      "inputs": [
        {
          "name": "owner",
          "type": "address"
        }
      ],
      "name": "balanceOf",
      "outputs": [
        {
          "name": "",
          "type": "uint256"
        }
      ],
      "payable": false,
      "stateMutability": "view",
      "type": "function"
    },
    {
      "constant": false,
      "inputs": [
        {
          "name": "to",
          "type": "address"
        },
        {
          "name": "approved",
          "type": "bool"
        }
      ],
      "name": "setApprovalForAll",
      "outputs": [],
      "payable": false,
      "stateMutability": "nonpayable",
      "type": "function"
    },
    {
      "constant": false,
      "inputs": [
        {
          "name": "from",
          "type": "address"
        },
        {
          "name": "to",
          "type": "address"
        },
        {
          "name": "tokenId",
          "type": "uint256"
        },
        {
          "name": "_data",
          "type": "bytes"
        }
      ],
      "name": "safeTransferFrom",
      "outputs": [],
      "payable": false,
      "stateMutability": "nonpayable",
      "type": "function"
    },
    {
      "constant": true,
      "inputs": [
        {
          "name": "owner",
          "type": "address"
        },
        {
          "name": "operator",
          "type": "address"
        }
      ],
      "name": "isApprovedForAll",
      "outputs": [
        {
          "name": "",
          "type": "bool"
        }
      ],
      "payable": false,
      "stateMutability": "view",
      "type": "function"
    },
    {
      "inputs": [],
      "payable": false,
      "stateMutability": "nonpayable",
      "type": "constructor"
    },
    {
      "anonymous": false,
      "inputs": [
        {
          "indexed": true,
          "name": "from",
          "type": "address"
        },
        {
          "indexed": true,
          "name": "to",
          "type": "address"
        },
        {
          "indexed": true,
          "name": "tokenId",
          "type": "uint256"
        }
      ],
      "name": "Transfer",
      "type": "event"
    },
    {
      "anonymous": false,
      "inputs": [
        {
          "indexed": true,
          "name": "seller",
          "type": "address"
        },
        {
          "indexed": true,
          "name": "buyer",
          "type": "address"
        },
        {
          "indexed": false,
          "name": "recipeID",
          "type": "uint256"
        }
      ],
      "name": "recipeRequestCompleted",
      "type": "event"
    },
    {
      "anonymous": false,
      "inputs": [
        {
          "indexed": true,
          "name": "seller",
          "type": "address"
        },
        {
          "indexed": true,
          "name": "buyer",
          "type": "address"
        },
        {
          "indexed": false,
          "name": "recipeID",
          "type": "uint256"
        }
      ],
      "name": "recipeRequestDenied",
      "type": "event"
    },
    {
      "anonymous": false,
      "inputs": [
        {
          "indexed": true,
          "name": "seller",
          "type": "address"
        },
        {
          "indexed": true,
          "name": "buyer",
          "type": "address"
        },
        {
          "indexed": false,
          "name": "recipeID",
          "type": "uint256"
        }
      ],
      "name": "recipeRequest",
      "type": "event"
    },
    {
      "anonymous": false,
      "inputs": [
        {
          "indexed": true,
          "name": "owner",
          "type": "address"
        },
        {
          "indexed": true,
          "name": "approved",
          "type": "address"
        },
        {
          "indexed": true,
          "name": "tokenId",
          "type": "uint256"
        }
      ],
      "name": "Approval",
      "type": "event"
    },
    {
      "anonymous": false,
      "inputs": [
        {
          "indexed": true,
          "name": "owner",
          "type": "address"
        },
        {
          "indexed": true,
          "name": "operator",
          "type": "address"
        },
        {
          "indexed": false,
          "name": "approved",
          "type": "bool"
        }
      ],
      "name": "ApprovalForAll",
      "type": "event"
    },
    {
      "constant": false,
      "inputs": [],
      "name": "register",
      "outputs": [],
      "payable": false,
      "stateMutability": "nonpayable",
      "type": "function"
    },
    {
      "constant": false,
      "inputs": [
        {
          "name": "userID",
          "type": "address"
        }
      ],
      "name": "unregisterMember",
      "outputs": [],
      "payable": false,
      "stateMutability": "nonpayable",
      "type": "function"
    },
    {
      "constant": false,
      "inputs": [],
      "name": "selfUnregister",
      "outputs": [],
      "payable": false,
      "stateMutability": "nonpayable",
      "type": "function"
    },
    {
      "constant": false,
      "inputs": [
        {
          "name": "name",
          "type": "string"
        },
        {
          "name": "price",
          "type": "uint256"
        }
      ],
      "name": "addRecipe",
      "outputs": [],
      "payable": false,
      "stateMutability": "nonpayable",
      "type": "function"
    },
    {
      "constant": false,
      "inputs": [
        {
          "name": "recipeID",
          "type": "uint256"
        },
        {
          "name": "buyer",
          "type": "address"
        },
        {
          "name": "seller",
          "type": "address"
        }
      ],
      "name": "request",
      "outputs": [],
      "payable": true,
      "stateMutability": "payable",
      "type": "function"
    },
    {
      "constant": false,
      "inputs": [
        {
          "name": "fromSeller",
          "type": "address"
        },
        {
          "name": "toBuyer",
          "type": "address"
        },
        {
          "name": "recipeID",
          "type": "uint256"
        }
      ],
      "name": "response",
      "outputs": [],
      "payable": false,
      "stateMutability": "nonpayable",
      "type": "function"
    },
    {
      "constant": false,
      "inputs": [],
      "name": "terminateContract",
      "outputs": [],
      "payable": false,
      "stateMutability": "nonpayable",
      "type": "function"
    },
    {
      "constant": true,
      "inputs": [
        {
          "name": "recipeId",
          "type": "uint256"
        }
      ],
      "name": "ownerOf",
      "outputs": [
        {
          "name": "",
          "type": "address"
        }
      ],
      "payable": false,
      "stateMutability": "view",
      "type": "function"
    }
  ],
  "bytecode": "0x60806040523480156200001157600080fd5b506200002a6301ffc9a760e01b6200008960201b60201c565b620000426380ac58cd60e01b6200008960201b60201c565b33600660006101000a81548173ffffffffffffffffffffffffffffffffffffffff021916908373ffffffffffffffffffffffffffffffffffffffff16021790555062000192565b63ffffffff60e01b817bffffffffffffffffffffffffffffffffffffffffffffffffffffffff1916141562000126576040517f08c379a000000000000000000000000000000000000000000000000000000000815260040180806020018281038252601c8152602001807f4552433136353a20696e76616c696420696e746572666163652069640000000081525060200191505060405180910390fd5b6001600080837bffffffffffffffffffffffffffffffffffffffffffffffffffffffff19167bffffffffffffffffffffffffffffffffffffffffffffffffffffffff1916815260200190815260200160002060006101000a81548160ff02191690831515021790555050565b61252080620001a26000396000f3fe6080604052600436106101145760003560e01c806347f4a1d1116100a0578063a28caf4f11610064578063a28caf4f1461062d578063b88d4fde1461069b578063cc6bd3db146107ad578063e985e9c514610828578063fc45f976146108b157610114565b806347f4a1d1146103f3578063627374761461041e5780636352211e146104f057806370a082311461056b578063a22cb465146105d057610114565b80631aa3a008116100e75780631aa3a0081461027857806323b872dd1461028f5780632fd949ca1461030a578063384f58eb1461032157806342842e0e1461037857610114565b806301ffc9a71461011957806304f0bbb61461018b578063081812fc146101a2578063095ea7b31461021d575b600080fd5b34801561012557600080fd5b506101716004803603602081101561013c57600080fd5b8101908080357bffffffffffffffffffffffffffffffffffffffffffffffffffffffff19169060200190929190505050610902565b604051808215151515815260200191505060405180910390f35b34801561019757600080fd5b506101a0610969565b005b3480156101ae57600080fd5b506101db600480360360208110156101c557600080fd5b8101908080359060200190929190505050610a52565b604051808273ffffffffffffffffffffffffffffffffffffffff1673ffffffffffffffffffffffffffffffffffffffff16815260200191505060405180910390f35b34801561022957600080fd5b506102766004803603604081101561024057600080fd5b81019080803573ffffffffffffffffffffffffffffffffffffffff16906020019092919080359060200190929190505050610aed565b005b34801561028457600080fd5b5061028d610cc6565b005b34801561029b57600080fd5b50610308600480360360608110156102b257600080fd5b81019080803573ffffffffffffffffffffffffffffffffffffffff169060200190929190803573ffffffffffffffffffffffffffffffffffffffff16906020019092919080359060200190929190505050610d0d565b005b34801561031657600080fd5b5061031f610d7c565b005b34801561032d57600080fd5b50610336610def565b604051808273ffffffffffffffffffffffffffffffffffffffff1673ffffffffffffffffffffffffffffffffffffffff16815260200191505060405180910390f35b34801561038457600080fd5b506103f16004803603606081101561039b57600080fd5b81019080803573ffffffffffffffffffffffffffffffffffffffff169060200190929190803573ffffffffffffffffffffffffffffffffffffffff16906020019092919080359060200190929190505050610e15565b005b3480156103ff57600080fd5b50610408610e35565b6040518082815260200191505060405180910390f35b34801561042a57600080fd5b506104ee6004803603604081101561044157600080fd5b810190808035906020019064010000000081111561045e57600080fd5b82018360208201111561047057600080fd5b8035906020019184600183028401116401000000008311171561049257600080fd5b91908080601f016020809104026020016040519081016040528093929190818152602001838380828437600081840152601f19601f82011690508083019250505050505050919291929080359060200190929190505050610e3b565b005b3480156104fc57600080fd5b506105296004803603602081101561051357600080fd5b8101908080359060200190929190505050610f10565b604051808273ffffffffffffffffffffffffffffffffffffffff1673ffffffffffffffffffffffffffffffffffffffff16815260200191505060405180910390f35b34801561057757600080fd5b506105ba6004803603602081101561058e57600080fd5b81019080803573ffffffffffffffffffffffffffffffffffffffff169060200190929190505050611063565b6040518082815260200191505060405180910390f35b3480156105dc57600080fd5b5061062b600480360360408110156105f357600080fd5b81019080803573ffffffffffffffffffffffffffffffffffffffff169060200190929190803515159060200190929190505050611138565b005b6106996004803603606081101561064357600080fd5b8101908080359060200190929190803573ffffffffffffffffffffffffffffffffffffffff169060200190929190803573ffffffffffffffffffffffffffffffffffffffff1690602001909291905050506112db565b005b3480156106a757600080fd5b506107ab600480360360808110156106be57600080fd5b81019080803573ffffffffffffffffffffffffffffffffffffffff169060200190929190803573ffffffffffffffffffffffffffffffffffffffff169060200190929190803590602001909291908035906020019064010000000081111561072557600080fd5b82018360208201111561073757600080fd5b8035906020019184600183028401116401000000008311171561075957600080fd5b91908080601f016020809104026020016040519081016040528093929190818152602001838380828437600081840152601f19601f8201169050808301925050505050505091929192905050506114fe565b005b3480156107b957600080fd5b50610826600480360360608110156107d057600080fd5b81019080803573ffffffffffffffffffffffffffffffffffffffff169060200190929190803573ffffffffffffffffffffffffffffffffffffffff16906020019092919080359060200190929190505050611570565b005b34801561083457600080fd5b506108976004803603604081101561084b57600080fd5b81019080803573ffffffffffffffffffffffffffffffffffffffff169060200190929190803573ffffffffffffffffffffffffffffffffffffffff1690602001909291905050506117ad565b604051808215151515815260200191505060405180910390f35b3480156108bd57600080fd5b50610900600480360360208110156108d457600080fd5b81019080803573ffffffffffffffffffffffffffffffffffffffff169060200190929190505050611841565b005b6000806000837bffffffffffffffffffffffffffffffffffffffffffffffffffffffff19167bffffffffffffffffffffffffffffffffffffffffffffffffffffffff1916815260200190815260200160002060009054906101000a900460ff169050919050565b6001600760003373ffffffffffffffffffffffffffffffffffffffff1673ffffffffffffffffffffffffffffffffffffffff16815260200190815260200160002054146109b557600080fd5b600660009054906101000a900473ffffffffffffffffffffffffffffffffffffffff1673ffffffffffffffffffffffffffffffffffffffff163373ffffffffffffffffffffffffffffffffffffffff1614610a50576000600760003373ffffffffffffffffffffffffffffffffffffffff1673ffffffffffffffffffffffffffffffffffffffff168152602001908152602001600020819055505b565b6000610a5d82611998565b610ab2576040517f08c379a000000000000000000000000000000000000000000000000000000000815260040180806020018281038252602c81526020018061244e602c913960400191505060405180910390fd5b6002600083815260200190815260200160002060009054906101000a900473ffffffffffffffffffffffffffffffffffffffff169050919050565b6000610af882610f10565b90508073ffffffffffffffffffffffffffffffffffffffff168373ffffffffffffffffffffffffffffffffffffffff161415610b7f576040517f08c379a00000000000000000000000000000000000000000000000000000000081526004018080602001828103825260218152602001806124a36021913960400191505060405180910390fd5b8073ffffffffffffffffffffffffffffffffffffffff163373ffffffffffffffffffffffffffffffffffffffff161480610bbf5750610bbe81336117ad565b5b610c14576040517f08c379a00000000000000000000000000000000000000000000000000000000081526004018080602001828103825260388152602001806123ec6038913960400191505060405180910390fd5b826002600084815260200190815260200160002060006101000a81548173ffffffffffffffffffffffffffffffffffffffff021916908373ffffffffffffffffffffffffffffffffffffffff160217905550818373ffffffffffffffffffffffffffffffffffffffff168273ffffffffffffffffffffffffffffffffffffffff167f8c5be1e5ebec7d5bd14f71427d1e84f3dd0314c0f7b2291e5b200ac8c7c3b92560405160405180910390a4505050565b6001600760003373ffffffffffffffffffffffffffffffffffffffff1673ffffffffffffffffffffffffffffffffffffffff16815260200190815260200160002081905550565b610d173382611a0a565b610d6c576040517f08c379a00000000000000000000000000000000000000000000000000000000081526004018080602001828103825260318152602001806124c46031913960400191505060405180910390fd5b610d77838383611afe565b505050565b600660009054906101000a900473ffffffffffffffffffffffffffffffffffffffff1673ffffffffffffffffffffffffffffffffffffffff163373ffffffffffffffffffffffffffffffffffffffff1614610dd657600080fd5b3373ffffffffffffffffffffffffffffffffffffffff16ff5b600660009054906101000a900473ffffffffffffffffffffffffffffffffffffffff1681565b610e30838383604051806020016040528060008152506114fe565b505050565b60055481565b6001600760003373ffffffffffffffffffffffffffffffffffffffff1673ffffffffffffffffffffffffffffffffffffffff1681526020019081526020016000205414610e8757600080fd5b6040518060400160405280600554815260200182815250600860006005548152602001908152602001600020600082015181600001556020820151816001015590505081600a600060055481526020019081526020016000209080519060200190610ef39291906122c4565b50610f0033600554611d59565b6001600554016005819055505050565b6000816009600082815260200190815260200160002060009054906101000a900473ffffffffffffffffffffffffffffffffffffffff1673ffffffffffffffffffffffffffffffffffffffff163373ffffffffffffffffffffffffffffffffffffffff1614610f7e57600080fd5b60006009600085815260200190815260200160002060009054906101000a900473ffffffffffffffffffffffffffffffffffffffff169050600073ffffffffffffffffffffffffffffffffffffffff168173ffffffffffffffffffffffffffffffffffffffff161415611059576040517f08c379a000000000000000000000000000000000000000000000000000000000815260040180806020018281038252600d8152602001807f4e6f41737365744578697374730000000000000000000000000000000000000081525060200191505060405180910390fd5b8092505050919050565b60008073ffffffffffffffffffffffffffffffffffffffff168273ffffffffffffffffffffffffffffffffffffffff1614156110ea576040517f08c379a000000000000000000000000000000000000000000000000000000000815260040180806020018281038252602a815260200180612424602a913960400191505060405180910390fd5b611131600360008473ffffffffffffffffffffffffffffffffffffffff1673ffffffffffffffffffffffffffffffffffffffff168152602001908152602001600020611ece565b9050919050565b3373ffffffffffffffffffffffffffffffffffffffff168273ffffffffffffffffffffffffffffffffffffffff1614156111da576040517f08c379a00000000000000000000000000000000000000000000000000000000081526004018080602001828103825260198152602001807f4552433732313a20617070726f766520746f2063616c6c65720000000000000081525060200191505060405180910390fd5b80600460003373ffffffffffffffffffffffffffffffffffffffff1673ffffffffffffffffffffffffffffffffffffffff16815260200190815260200160002060008473ffffffffffffffffffffffffffffffffffffffff1673ffffffffffffffffffffffffffffffffffffffff16815260200190815260200160002060006101000a81548160ff0219169083151502179055508173ffffffffffffffffffffffffffffffffffffffff163373ffffffffffffffffffffffffffffffffffffffff167f17307eab39ab6107e8899845ad3d59bd9653f200f220920489ca2b5937696c3183604051808215151515815260200191505060405180910390a35050565b6001600760003373ffffffffffffffffffffffffffffffffffffffff1673ffffffffffffffffffffffffffffffffffffffff168152602001908152602001600020541461132757600080fd5b8073ffffffffffffffffffffffffffffffffffffffff166009600085815260200190815260200160002060009054906101000a900473ffffffffffffffffffffffffffffffffffffffff1673ffffffffffffffffffffffffffffffffffffffff16146113fb576040517f08c379a00000000000000000000000000000000000000000000000000000000081526004018080602001828103825260118152602001807f4e6f745468655265636970654f776e657200000000000000000000000000000081525060200191505060405180910390fd5b816009600085815260200190815260200160002060006101000a81548173ffffffffffffffffffffffffffffffffffffffff021916908373ffffffffffffffffffffffffffffffffffffffff1602179055508073ffffffffffffffffffffffffffffffffffffffff166108fc349081150290604051600060405180830381858888f19350505050158015611493573d6000803e3d6000fd5b508073ffffffffffffffffffffffffffffffffffffffff168273ffffffffffffffffffffffffffffffffffffffff167fa6a37d3abef4786d38dbd76e243dd347c9b8861e30760d2890a6e1d2bfab9bef856040518082815260200191505060405180910390a3505050565b611509848484610d0d565b61151584848484611edc565b61156a576040517f08c379a000000000000000000000000000000000000000000000000000000000815260040180806020018281038252603281526020018061236a6032913960400191505060405180910390fd5b50505050565b6001600760008473ffffffffffffffffffffffffffffffffffffffff1673ffffffffffffffffffffffffffffffffffffffff1681526020019081526020016000205414611621578173ffffffffffffffffffffffffffffffffffffffff168373ffffffffffffffffffffffffffffffffffffffff167f8f61f052537f0bf056f967804f44154393ca499d4bf2a9b37cd68a4dd6c49b41836040518082815260200191505060405180910390a3600080fd5b8273ffffffffffffffffffffffffffffffffffffffff166009600083815260200190815260200160002060009054906101000a900473ffffffffffffffffffffffffffffffffffffffff1673ffffffffffffffffffffffffffffffffffffffff16146116f1578173ffffffffffffffffffffffffffffffffffffffff168373ffffffffffffffffffffffffffffffffffffffff167f8f61f052537f0bf056f967804f44154393ca499d4bf2a9b37cd68a4dd6c49b41836040518082815260200191505060405180910390a3600080fd5b336009600083815260200190815260200160002060006101000a81548173ffffffffffffffffffffffffffffffffffffffff021916908373ffffffffffffffffffffffffffffffffffffffff1602179055508173ffffffffffffffffffffffffffffffffffffffff168373ffffffffffffffffffffffffffffffffffffffff167f8103e86d08623c78d70b23f063c1fa005aa6b8b12351ac531884890653656578836040518082815260200191505060405180910390a3505050565b6000600460008473ffffffffffffffffffffffffffffffffffffffff1673ffffffffffffffffffffffffffffffffffffffff16815260200190815260200160002060008373ffffffffffffffffffffffffffffffffffffffff1673ffffffffffffffffffffffffffffffffffffffff16815260200190815260200160002060009054906101000a900460ff16905092915050565b600660009054906101000a900473ffffffffffffffffffffffffffffffffffffffff1673ffffffffffffffffffffffffffffffffffffffff163373ffffffffffffffffffffffffffffffffffffffff161461189b57600080fd5b6000600760008373ffffffffffffffffffffffffffffffffffffffff1673ffffffffffffffffffffffffffffffffffffffff1681526020019081526020016000205414611950576040517f08c379a00000000000000000000000000000000000000000000000000000000081526004018080602001828103825260138152602001807f55736572206e6f7420726567697374657265640000000000000000000000000081525060200191505060405180910390fd5b6000600760008373ffffffffffffffffffffffffffffffffffffffff1673ffffffffffffffffffffffffffffffffffffffff1681526020019081526020016000208190555050565b6000806001600084815260200190815260200160002060009054906101000a900473ffffffffffffffffffffffffffffffffffffffff169050600073ffffffffffffffffffffffffffffffffffffffff168173ffffffffffffffffffffffffffffffffffffffff161415915050919050565b6000611a1582611998565b611a6a576040517f08c379a000000000000000000000000000000000000000000000000000000000815260040180806020018281038252602c8152602001806123c0602c913960400191505060405180910390fd5b6000611a7583610f10565b90508073ffffffffffffffffffffffffffffffffffffffff168473ffffffffffffffffffffffffffffffffffffffff161480611ae457508373ffffffffffffffffffffffffffffffffffffffff16611acc84610a52565b73ffffffffffffffffffffffffffffffffffffffff16145b80611af55750611af481856117ad565b5b91505092915050565b8273ffffffffffffffffffffffffffffffffffffffff16611b1e82610f10565b73ffffffffffffffffffffffffffffffffffffffff1614611b8a576040517f08c379a000000000000000000000000000000000000000000000000000000000815260040180806020018281038252602981526020018061247a6029913960400191505060405180910390fd5b600073ffffffffffffffffffffffffffffffffffffffff168273ffffffffffffffffffffffffffffffffffffffff161415611c10576040517f08c379a000000000000000000000000000000000000000000000000000000000815260040180806020018281038252602481526020018061239c6024913960400191505060405180910390fd5b611c19816120c5565b611c60600360008573ffffffffffffffffffffffffffffffffffffffff1673ffffffffffffffffffffffffffffffffffffffff168152602001908152602001600020612183565b611ca7600360008473ffffffffffffffffffffffffffffffffffffffff1673ffffffffffffffffffffffffffffffffffffffff1681526020019081526020016000206121a6565b816001600083815260200190815260200160002060006101000a81548173ffffffffffffffffffffffffffffffffffffffff021916908373ffffffffffffffffffffffffffffffffffffffff160217905550808273ffffffffffffffffffffffffffffffffffffffff168473ffffffffffffffffffffffffffffffffffffffff167fddf252ad1be2c89b69c2b068fc378daa952ba7f163c4a11628f55a4df523b3ef60405160405180910390a4505050565b600073ffffffffffffffffffffffffffffffffffffffff168273ffffffffffffffffffffffffffffffffffffffff161415611dfc576040517f08c379a00000000000000000000000000000000000000000000000000000000081526004018080602001828103825260138152602001807f5a65726f416464726573734d696e6974696e670000000000000000000000000081525060200191505060405180910390fd5b611e05816121bc565b15611e78576040517f08c379a000000000000000000000000000000000000000000000000000000000815260040180806020018281038252600d8152602001807f416c72656164794d696e7465640000000000000000000000000000000000000081525060200191505060405180910390fd5b816009600083815260200190815260200160002060006101000a81548173ffffffffffffffffffffffffffffffffffffffff021916908373ffffffffffffffffffffffffffffffffffffffff1602179055505050565b600081600001549050919050565b6000611efd8473ffffffffffffffffffffffffffffffffffffffff16612228565b611f0a57600190506120bd565b60008473ffffffffffffffffffffffffffffffffffffffff1663150b7a02338887876040518563ffffffff1660e01b8152600401808573ffffffffffffffffffffffffffffffffffffffff1673ffffffffffffffffffffffffffffffffffffffff1681526020018473ffffffffffffffffffffffffffffffffffffffff1673ffffffffffffffffffffffffffffffffffffffff16815260200183815260200180602001828103825283818151815260200191508051906020019080838360005b83811015611fe5578082015181840152602081019050611fca565b50505050905090810190601f1680156120125780820380516001836020036101000a031916815260200191505b5095505050505050602060405180830381600087803b15801561203457600080fd5b505af1158015612048573d6000803e3d6000fd5b505050506040513d602081101561205e57600080fd5b8101908080519060200190929190505050905063150b7a0260e01b7bffffffffffffffffffffffffffffffffffffffffffffffffffffffff1916817bffffffffffffffffffffffffffffffffffffffffffffffffffffffff1916149150505b949350505050565b600073ffffffffffffffffffffffffffffffffffffffff166002600083815260200190815260200160002060009054906101000a900473ffffffffffffffffffffffffffffffffffffffff1673ffffffffffffffffffffffffffffffffffffffff16146121805760006002600083815260200190815260200160002060006101000a81548173ffffffffffffffffffffffffffffffffffffffff021916908373ffffffffffffffffffffffffffffffffffffffff1602179055505b50565b61219b6001826000015461223b90919063ffffffff16565b816000018190555050565b6001816000016000828254019250508190555050565b60008073ffffffffffffffffffffffffffffffffffffffff166009600084815260200190815260200160002060009054906101000a900473ffffffffffffffffffffffffffffffffffffffff1673ffffffffffffffffffffffffffffffffffffffff1614159050919050565b600080823b905060008111915050919050565b6000828211156122b3576040517f08c379a000000000000000000000000000000000000000000000000000000000815260040180806020018281038252601e8152602001807f536166654d6174683a207375627472616374696f6e206f766572666c6f77000081525060200191505060405180910390fd5b600082840390508091505092915050565b828054600181600116156101000203166002900490600052602060002090601f016020900481019282601f1061230557805160ff1916838001178555612333565b82800160010185558215612333579182015b82811115612332578251825591602001919060010190612317565b5b5090506123409190612344565b5090565b61236691905b8082111561236257600081600090555060010161234a565b5090565b9056fe4552433732313a207472616e7366657220746f206e6f6e20455243373231526563656976657220696d706c656d656e7465724552433732313a207472616e7366657220746f20746865207a65726f20616464726573734552433732313a206f70657261746f7220717565727920666f72206e6f6e6578697374656e7420746f6b656e4552433732313a20617070726f76652063616c6c6572206973206e6f74206f776e6572206e6f7220617070726f76656420666f7220616c6c4552433732313a2062616c616e636520717565727920666f7220746865207a65726f20616464726573734552433732313a20617070726f76656420717565727920666f72206e6f6e6578697374656e7420746f6b656e4552433732313a207472616e73666572206f6620746f6b656e2074686174206973206e6f74206f776e4552433732313a20617070726f76616c20746f2063757272656e74206f776e65724552433732313a207472616e736665722063616c6c6572206973206e6f74206f776e6572206e6f7220617070726f766564a165627a7a7230582051a7d637280c15a2f437d04d1b58ea6439d0d8829bfe05e91bbd6500083b8ac50029",
  "source": "//SPDX-License-Identifier: UNLICENSED\npragma solidity >=0.4.22 <0.9.0;\nimport \"./helper_contracts/ERC721.sol\";\n\ncontract CulinaryLegacyRecipe is ERC721{\n    //##############Data Structure#####################\n\tstruct Recipe {\n        uint256 recipeID; \n        uint256 price;\n    }\n\n    uint256 public recipeCounts; //increment id for recipe\n    address public contract_owner;\n    mapping(address => uint256) registeredUser; //keeping track registered user (address => 0/1)\n    mapping(uint256 => Recipe) recipeMap; // recipeId -> recipe object\n    mapping(uint256 => address) recipeOwner; //recipeId -> creator // different recipeId shares the same creator\n    mapping(uint256 => string) recipeNames; //recipeID -> the name\n\n    //#########Event and Modifier##############\n    \n    //Events\n    event Transfer(address indexed from, address indexed to, uint256 indexed tokenId);\n    event recipeRequestCompleted(address indexed seller, address indexed buyer, uint recipeID); \n    event recipeRequestDenied(address indexed seller, address indexed buyer, uint recipeID); \n    event recipeRequest(address indexed seller, address indexed buyer, uint recipeID); \n\n    modifier onlyContractOwner(){\n        require(msg.sender == contract_owner);\n        _;\n    }\n    modifier onlyRecipeOwner(uint recipdeId){\n        require(msg.sender == recipeOwner[recipdeId]);\n        _;\n    }\n    modifier onlyRegisteredUser(){\n        require(registeredUser[msg.sender] == 1);\n        _;\n    }\n\n    //#########Functions###############\n    constructor() public{\n        contract_owner = msg.sender;\n    }\n\n    function register() public {\n        registeredUser[msg.sender] = 1;\n    }\n\n    function unregisterMember(address userID) onlyContractOwner public{\n        require(registeredUser[userID] == 0, \"User not registered\"); \n        registeredUser[userID] = 0;\n    }\n    \n    //self-unregister onself from the contract\n    function selfUnregister() public onlyRegisteredUser{\n        if (msg.sender != contract_owner){\n            registeredUser[msg.sender] = 0;\n        }\n    }\n    \n    //Create new recipe for sale\n    function addRecipe(string memory name, uint price) public onlyRegisteredUser{\n        recipeMap[recipeCounts] = Recipe(recipeCounts, price);\n        recipeNames[recipeCounts] = name; \n        mint(msg.sender,recipeCounts);\n        recipeCounts = recipeCounts+1;\n    }\n    \n    //TODO: consider checking ASK example\n    function request(uint recipeID, address buyer, address payable seller) onlyRegisteredUser payable public{\n        require(recipeOwner[recipeID] == seller, \"NotTheRecipeOwner\");\n        recipeOwner[recipeID]=buyer;\n        seller.transfer(msg.value);\n        emit recipeRequest(buyer, seller, recipeID);\n    }\n\n    ////TODO: consider checking ASK example\n    function response(address fromSeller, address toBuyer, uint recipeID) public{\n        // if buyer not registered -> revert + announce cancellation \n        if (registeredUser[toBuyer] != 1) {\n            emit recipeRequestDenied(fromSeller, toBuyer, recipeID);\n            revert(); \n        } \n        // if seller does not own recipe -> cancel (for some reason the onlyRecipeOwner is triggering the compiler??)\n        if (recipeOwner[recipeID] != fromSeller) {\n            emit recipeRequestDenied(fromSeller, toBuyer, recipeID);\n            revert(); \n        }\n        // else -> announce completion + transfer ownership \n        recipeOwner[recipeID] = msg.sender; \n        emit recipeRequestCompleted(fromSeller,toBuyer,recipeID);\n    }\n\n    function terminateContract () onlyContractOwner public{\n        selfdestruct(msg.sender);\n    }\n\n    //for testing purpose\n    function ownerOf(uint256 recipeId) onlyRecipeOwner(recipeId) public view returns (address) {\n        address owner = recipeOwner[recipeId];\n        require(owner != address(0), \"NoAssetExists\");\n        return owner;\n    }\n\n    //########Functions used by other functions##################\n    function mint(address to, uint256 recipeId) internal {\n        require(to != address(0), \"ZeroAddressMiniting\");\n        require(!exists(recipeId), \"AlreadyMinted\");\n        recipeOwner[recipeId] = to;\n        //emit Transfer(address(0), to, assetId);\n    }\n    function exists(uint256 recipeId) internal view returns (bool) {\n        return recipeOwner[recipeId] != address(0);\n    }\n}",
  "sourcePath": "/Users/Pan2k17/Desktop/426Block/project/CulinaryLegacy/culinary-contract/contracts/Culinary.sol",
  "compiler": {
    "name": "solc",
    "version": "0.5.8+commit.23d335f2.Emscripten.clang"
  },
  "schemaVersion": "3.4.13",
  "updatedAt": "2023-05-08T02:49:34.289Z",
  "networkType": "ethereum",
  "devdoc": {
    "methods": {
      "approve(address,uint256)": {
        "details": "Approves another address to transfer the given token ID The zero address indicates there is no approved address. There can only be one approved address per token at a given time. Can only be called by the token owner or an approved operator.",
        "params": {
          "to": "address to be approved for the given token ID",
          "tokenId": "uint256 ID of the token to be approved"
        }
      },
      "balanceOf(address)": {
        "details": "Gets the balance of the specified address.",
        "params": {
          "owner": "address to query the balance of"
        },
        "return": "uint256 representing the amount owned by the passed address"
      },
      "getApproved(uint256)": {
        "details": "Gets the approved address for a token ID, or zero if no address set Reverts if the token ID does not exist.",
        "params": {
          "tokenId": "uint256 ID of the token to query the approval of"
        },
        "return": "address currently approved for the given token ID"
      },
      "isApprovedForAll(address,address)": {
        "details": "Tells whether an operator is approved by a given owner.",
        "params": {
          "operator": "operator address which you want to query the approval of",
          "owner": "owner address which you want to query the approval of"
        },
        "return": "bool whether the given operator is approved by the given owner"
      },
      "safeTransferFrom(address,address,uint256)": {
        "details": "Safely transfers the ownership of a given token ID to another address If the target address is a contract, it must implement `onERC721Received`, which is called upon a safe transfer, and return the magic value `bytes4(keccak256(\"onERC721Received(address,address,uint256,bytes)\"))`; otherwise, the transfer is reverted. Requires the msg.sender to be the owner, approved, or operator",
        "params": {
          "from": "current owner of the token",
          "to": "address to receive the ownership of the given token ID",
          "tokenId": "uint256 ID of the token to be transferred"
        }
      },
      "safeTransferFrom(address,address,uint256,bytes)": {
        "details": "Safely transfers the ownership of a given token ID to another address If the target address is a contract, it must implement `onERC721Received`, which is called upon a safe transfer, and return the magic value `bytes4(keccak256(\"onERC721Received(address,address,uint256,bytes)\"))`; otherwise, the transfer is reverted. Requires the msg.sender to be the owner, approved, or operator",
        "params": {
          "_data": "bytes data to send along with a safe transfer check",
          "from": "current owner of the token",
          "to": "address to receive the ownership of the given token ID",
          "tokenId": "uint256 ID of the token to be transferred"
        }
      },
      "setApprovalForAll(address,bool)": {
        "details": "Sets or unsets the approval of a given operator An operator is allowed to transfer all tokens of the sender on their behalf.",
        "params": {
          "approved": "representing the status of the approval to be set",
          "to": "operator address to set the approval"
        }
      },
      "supportsInterface(bytes4)": {
        "details": "See `IERC165.supportsInterface`.     * Time complexity O(1), guaranteed to always use less than 30 000 gas."
      },
      "transferFrom(address,address,uint256)": {
        "details": "Transfers the ownership of a given token ID to another address. Usage of this method is discouraged, use `safeTransferFrom` whenever possible. Requires the msg.sender to be the owner, approved, or operator.",
        "params": {
          "from": "current owner of the token",
          "to": "address to receive the ownership of the given token ID",
          "tokenId": "uint256 ID of the token to be transferred"
        }
      }
    }
  },
  "userdoc": {
    "methods": {
      "response(address,address,uint256)": {
        "notice": "/TODO: consider checking ASK example"
      }
    }
  }
}