{
  "contractName": "CulinaryLegacyRecipe",
  "abi": [
    {
      "constant": true,
      "inputs": [
        {
          "name": "interfaceId",
          "type": "bytes4"
        }
      ],
      "name": "supportsInterface",
      "outputs": [
        {
          "name": "",
          "type": "bool"
        }
      ],
      "payable": false,
      "stateMutability": "view",
      "type": "function"
    },
    {
      "constant": true,
      "inputs": [
        {
          "name": "tokenId",
          "type": "uint256"
        }
      ],
      "name": "getApproved",
      "outputs": [
        {
          "name": "",
          "type": "address"
        }
      ],
      "payable": false,
      "stateMutability": "view",
      "type": "function"
    },
    {
      "constant": false,
      "inputs": [
        {
          "name": "to",
          "type": "address"
        },
        {
          "name": "tokenId",
          "type": "uint256"
        }
      ],
      "name": "approve",
      "outputs": [],
      "payable": false,
      "stateMutability": "nonpayable",
      "type": "function"
    },
    {
      "constant": false,
      "inputs": [
        {
          "name": "from",
          "type": "address"
        },
        {
          "name": "to",
          "type": "address"
        },
        {
          "name": "tokenId",
          "type": "uint256"
        }
      ],
      "name": "transferFrom",
      "outputs": [],
      "payable": false,
      "stateMutability": "nonpayable",
      "type": "function"
    },
    {
      "constant": true,
      "inputs": [],
      "name": "contract_owner",
      "outputs": [
        {
          "name": "",
          "type": "address"
        }
      ],
      "payable": false,
      "stateMutability": "view",
      "type": "function"
    },
    {
      "constant": false,
      "inputs": [
        {
          "name": "from",
          "type": "address"
        },
        {
          "name": "to",
          "type": "address"
        },
        {
          "name": "tokenId",
          "type": "uint256"
        }
      ],
      "name": "safeTransferFrom",
      "outputs": [],
      "payable": false,
      "stateMutability": "nonpayable",
      "type": "function"
    },
    {
      "constant": true,
      "inputs": [],
      "name": "recipeCounts",
      "outputs": [
        {
          "name": "",
          "type": "uint256"
        }
      ],
      "payable": false,
      "stateMutability": "view",
      "type": "function"
    },
    {
      "constant": true,
      "inputs": [
        {
          "name": "owner",
          "type": "address"
        }
      ],
      "name": "balanceOf",
      "outputs": [
        {
          "name": "",
          "type": "uint256"
        }
      ],
      "payable": false,
      "stateMutability": "view",
      "type": "function"
    },
    {
      "constant": false,
      "inputs": [
        {
          "name": "to",
          "type": "address"
        },
        {
          "name": "approved",
          "type": "bool"
        }
      ],
      "name": "setApprovalForAll",
      "outputs": [],
      "payable": false,
      "stateMutability": "nonpayable",
      "type": "function"
    },
    {
      "constant": false,
      "inputs": [
        {
          "name": "from",
          "type": "address"
        },
        {
          "name": "to",
          "type": "address"
        },
        {
          "name": "tokenId",
          "type": "uint256"
        },
        {
          "name": "_data",
          "type": "bytes"
        }
      ],
      "name": "safeTransferFrom",
      "outputs": [],
      "payable": false,
      "stateMutability": "nonpayable",
      "type": "function"
    },
    {
      "constant": true,
      "inputs": [
        {
          "name": "owner",
          "type": "address"
        },
        {
          "name": "operator",
          "type": "address"
        }
      ],
      "name": "isApprovedForAll",
      "outputs": [
        {
          "name": "",
          "type": "bool"
        }
      ],
      "payable": false,
      "stateMutability": "view",
      "type": "function"
    },
    {
      "inputs": [],
      "payable": false,
      "stateMutability": "nonpayable",
      "type": "constructor"
    },
    {
      "anonymous": false,
      "inputs": [
        {
          "indexed": true,
          "name": "from",
          "type": "address"
        },
        {
          "indexed": true,
          "name": "to",
          "type": "address"
        },
        {
          "indexed": true,
          "name": "tokenId",
          "type": "uint256"
        }
      ],
      "name": "Transfer",
      "type": "event"
    },
    {
      "anonymous": false,
      "inputs": [
        {
          "indexed": true,
          "name": "seller",
          "type": "address"
        },
        {
          "indexed": true,
          "name": "buyer",
          "type": "address"
        },
        {
          "indexed": false,
          "name": "recipeID",
          "type": "uint256"
        }
      ],
      "name": "recipeRequestCompleted",
      "type": "event"
    },
    {
      "anonymous": false,
      "inputs": [
        {
          "indexed": true,
          "name": "seller",
          "type": "address"
        },
        {
          "indexed": true,
          "name": "buyer",
          "type": "address"
        },
        {
          "indexed": false,
          "name": "recipeID",
          "type": "uint256"
        }
      ],
      "name": "recipeRequestDenied",
      "type": "event"
    },
    {
      "anonymous": false,
      "inputs": [
        {
          "indexed": true,
          "name": "seller",
          "type": "address"
        },
        {
          "indexed": true,
          "name": "buyer",
          "type": "address"
        },
        {
          "indexed": false,
          "name": "recipeID",
          "type": "uint256"
        }
      ],
      "name": "recipeRequest",
      "type": "event"
    },
    {
      "anonymous": false,
      "inputs": [
        {
          "indexed": true,
          "name": "owner",
          "type": "address"
        },
        {
          "indexed": true,
          "name": "approved",
          "type": "address"
        },
        {
          "indexed": true,
          "name": "tokenId",
          "type": "uint256"
        }
      ],
      "name": "Approval",
      "type": "event"
    },
    {
      "anonymous": false,
      "inputs": [
        {
          "indexed": true,
          "name": "owner",
          "type": "address"
        },
        {
          "indexed": true,
          "name": "operator",
          "type": "address"
        },
        {
          "indexed": false,
          "name": "approved",
          "type": "bool"
        }
      ],
      "name": "ApprovalForAll",
      "type": "event"
    },
    {
      "constant": false,
      "inputs": [],
      "name": "register",
      "outputs": [],
      "payable": false,
      "stateMutability": "nonpayable",
      "type": "function"
    },
    {
      "constant": false,
      "inputs": [
        {
          "name": "userID",
          "type": "address"
        }
      ],
      "name": "unregisterMember",
      "outputs": [],
      "payable": false,
      "stateMutability": "nonpayable",
      "type": "function"
    },
    {
      "constant": false,
      "inputs": [],
      "name": "selfUnregister",
      "outputs": [],
      "payable": false,
      "stateMutability": "nonpayable",
      "type": "function"
    },
    {
      "constant": false,
      "inputs": [
        {
          "name": "id",
          "type": "uint256"
        },
        {
          "name": "price",
          "type": "uint256"
        }
      ],
      "name": "addRecipe",
      "outputs": [],
      "payable": false,
      "stateMutability": "nonpayable",
      "type": "function"
    },
    {
      "constant": false,
      "inputs": [
        {
          "name": "recipeID",
          "type": "uint256"
        },
        {
          "name": "buyer",
          "type": "address"
        },
        {
          "name": "seller",
          "type": "address"
        }
      ],
      "name": "request",
      "outputs": [],
      "payable": true,
      "stateMutability": "payable",
      "type": "function"
    },
    {
      "constant": false,
      "inputs": [
        {
          "name": "fromSeller",
          "type": "address"
        },
        {
          "name": "toBuyer",
          "type": "address"
        },
        {
          "name": "recipeID",
          "type": "uint256"
        }
      ],
      "name": "response",
      "outputs": [],
      "payable": false,
      "stateMutability": "nonpayable",
      "type": "function"
    },
    {
      "constant": false,
      "inputs": [],
      "name": "terminateContract",
      "outputs": [],
      "payable": false,
      "stateMutability": "nonpayable",
      "type": "function"
    },
    {
      "constant": true,
      "inputs": [
        {
          "name": "recipeId",
          "type": "uint256"
        }
      ],
      "name": "ownerOf",
      "outputs": [
        {
          "name": "",
          "type": "address"
        }
      ],
      "payable": false,
      "stateMutability": "view",
      "type": "function"
    }
  ],
  "bytecode": "0x60806040523480156200001157600080fd5b506200002a6301ffc9a760e01b6200008960201b60201c565b620000426380ac58cd60e01b6200008960201b60201c565b33600660006101000a81548173ffffffffffffffffffffffffffffffffffffffff021916908373ffffffffffffffffffffffffffffffffffffffff16021790555062000192565b63ffffffff60e01b817bffffffffffffffffffffffffffffffffffffffffffffffffffffffff1916141562000126576040517f08c379a000000000000000000000000000000000000000000000000000000000815260040180806020018281038252601c8152602001807f4552433136353a20696e76616c696420696e746572666163652069640000000081525060200191505060405180910390fd5b6001600080837bffffffffffffffffffffffffffffffffffffffffffffffffffffffff19167bffffffffffffffffffffffffffffffffffffffffffffffffffffffff1916815260200190815260200160002060006101000a81548160ff02191690831515021790555050565b61239280620001a26000396000f3fe6080604052600436106101145760003560e01c806347f4a1d1116100a0578063a28caf4f11610064578063a28caf4f146105a0578063b88d4fde1461060e578063cc6bd3db14610720578063e985e9c51461079b578063fc45f9761461082457610114565b806347f4a1d1146103f35780636352211e1461041e578063685e66821461049957806370a08231146104de578063a22cb4651461054357610114565b80631aa3a008116100e75780631aa3a0081461027857806323b872dd1461028f5780632fd949ca1461030a578063384f58eb1461032157806342842e0e1461037857610114565b806301ffc9a71461011957806304f0bbb61461018b578063081812fc146101a2578063095ea7b31461021d575b600080fd5b34801561012557600080fd5b506101716004803603602081101561013c57600080fd5b8101908080357bffffffffffffffffffffffffffffffffffffffffffffffffffffffff19169060200190929190505050610875565b604051808215151515815260200191505060405180910390f35b34801561019757600080fd5b506101a06108dc565b005b3480156101ae57600080fd5b506101db600480360360208110156101c557600080fd5b81019080803590602001909291905050506109c5565b604051808273ffffffffffffffffffffffffffffffffffffffff1673ffffffffffffffffffffffffffffffffffffffff16815260200191505060405180910390f35b34801561022957600080fd5b506102766004803603604081101561024057600080fd5b81019080803573ffffffffffffffffffffffffffffffffffffffff16906020019092919080359060200190929190505050610a60565b005b34801561028457600080fd5b5061028d610c39565b005b34801561029b57600080fd5b50610308600480360360608110156102b257600080fd5b81019080803573ffffffffffffffffffffffffffffffffffffffff169060200190929190803573ffffffffffffffffffffffffffffffffffffffff16906020019092919080359060200190929190505050610c80565b005b34801561031657600080fd5b5061031f610cef565b005b34801561032d57600080fd5b50610336610d62565b604051808273ffffffffffffffffffffffffffffffffffffffff1673ffffffffffffffffffffffffffffffffffffffff16815260200191505060405180910390f35b34801561038457600080fd5b506103f16004803603606081101561039b57600080fd5b81019080803573ffffffffffffffffffffffffffffffffffffffff169060200190929190803573ffffffffffffffffffffffffffffffffffffffff16906020019092919080359060200190929190505050610d88565b005b3480156103ff57600080fd5b50610408610da8565b6040518082815260200191505060405180910390f35b34801561042a57600080fd5b506104576004803603602081101561044157600080fd5b8101908080359060200190929190505050610dae565b604051808273ffffffffffffffffffffffffffffffffffffffff1673ffffffffffffffffffffffffffffffffffffffff16815260200191505060405180910390f35b3480156104a557600080fd5b506104dc600480360360408110156104bc57600080fd5b810190808035906020019092919080359060200190929190505050610f01565b005b3480156104ea57600080fd5b5061052d6004803603602081101561050157600080fd5b81019080803573ffffffffffffffffffffffffffffffffffffffff169060200190929190505050610f7a565b6040518082815260200191505060405180910390f35b34801561054f57600080fd5b5061059e6004803603604081101561056657600080fd5b81019080803573ffffffffffffffffffffffffffffffffffffffff16906020019092919080351515906020019092919050505061104f565b005b61060c600480360360608110156105b657600080fd5b8101908080359060200190929190803573ffffffffffffffffffffffffffffffffffffffff169060200190929190803573ffffffffffffffffffffffffffffffffffffffff1690602001909291905050506111f2565b005b34801561061a57600080fd5b5061071e6004803603608081101561063157600080fd5b81019080803573ffffffffffffffffffffffffffffffffffffffff169060200190929190803573ffffffffffffffffffffffffffffffffffffffff169060200190929190803590602001909291908035906020019064010000000081111561069857600080fd5b8201836020820111156106aa57600080fd5b803590602001918460018302840111640100000000831117156106cc57600080fd5b91908080601f016020809104026020016040519081016040528093929190818152602001838380828437600081840152601f19601f820116905080830192505050505050509192919290505050611415565b005b34801561072c57600080fd5b506107996004803603606081101561074357600080fd5b81019080803573ffffffffffffffffffffffffffffffffffffffff169060200190929190803573ffffffffffffffffffffffffffffffffffffffff16906020019092919080359060200190929190505050611487565b005b3480156107a757600080fd5b5061080a600480360360408110156107be57600080fd5b81019080803573ffffffffffffffffffffffffffffffffffffffff169060200190929190803573ffffffffffffffffffffffffffffffffffffffff1690602001909291905050506116c4565b604051808215151515815260200191505060405180910390f35b34801561083057600080fd5b506108736004803603602081101561084757600080fd5b81019080803573ffffffffffffffffffffffffffffffffffffffff169060200190929190505050611758565b005b6000806000837bffffffffffffffffffffffffffffffffffffffffffffffffffffffff19167bffffffffffffffffffffffffffffffffffffffffffffffffffffffff1916815260200190815260200160002060009054906101000a900460ff169050919050565b6001600760003373ffffffffffffffffffffffffffffffffffffffff1673ffffffffffffffffffffffffffffffffffffffff168152602001908152602001600020541461092857600080fd5b600660009054906101000a900473ffffffffffffffffffffffffffffffffffffffff1673ffffffffffffffffffffffffffffffffffffffff163373ffffffffffffffffffffffffffffffffffffffff16146109c3576000600760003373ffffffffffffffffffffffffffffffffffffffff1673ffffffffffffffffffffffffffffffffffffffff168152602001908152602001600020819055505b565b60006109d0826118af565b610a25576040517f08c379a000000000000000000000000000000000000000000000000000000000815260040180806020018281038252602c8152602001806122c0602c913960400191505060405180910390fd5b6002600083815260200190815260200160002060009054906101000a900473ffffffffffffffffffffffffffffffffffffffff169050919050565b6000610a6b82610dae565b90508073ffffffffffffffffffffffffffffffffffffffff168373ffffffffffffffffffffffffffffffffffffffff161415610af2576040517f08c379a00000000000000000000000000000000000000000000000000000000081526004018080602001828103825260218152602001806123156021913960400191505060405180910390fd5b8073ffffffffffffffffffffffffffffffffffffffff163373ffffffffffffffffffffffffffffffffffffffff161480610b325750610b3181336116c4565b5b610b87576040517f08c379a000000000000000000000000000000000000000000000000000000000815260040180806020018281038252603881526020018061225e6038913960400191505060405180910390fd5b826002600084815260200190815260200160002060006101000a81548173ffffffffffffffffffffffffffffffffffffffff021916908373ffffffffffffffffffffffffffffffffffffffff160217905550818373ffffffffffffffffffffffffffffffffffffffff168273ffffffffffffffffffffffffffffffffffffffff167f8c5be1e5ebec7d5bd14f71427d1e84f3dd0314c0f7b2291e5b200ac8c7c3b92560405160405180910390a4505050565b6001600760003373ffffffffffffffffffffffffffffffffffffffff1673ffffffffffffffffffffffffffffffffffffffff16815260200190815260200160002081905550565b610c8a3382611921565b610cdf576040517f08c379a00000000000000000000000000000000000000000000000000000000081526004018080602001828103825260318152602001806123366031913960400191505060405180910390fd5b610cea838383611a15565b505050565b600660009054906101000a900473ffffffffffffffffffffffffffffffffffffffff1673ffffffffffffffffffffffffffffffffffffffff163373ffffffffffffffffffffffffffffffffffffffff1614610d4957600080fd5b3373ffffffffffffffffffffffffffffffffffffffff16ff5b600660009054906101000a900473ffffffffffffffffffffffffffffffffffffffff1681565b610da383838360405180602001604052806000815250611415565b505050565b60055481565b6000816009600082815260200190815260200160002060009054906101000a900473ffffffffffffffffffffffffffffffffffffffff1673ffffffffffffffffffffffffffffffffffffffff163373ffffffffffffffffffffffffffffffffffffffff1614610e1c57600080fd5b60006009600085815260200190815260200160002060009054906101000a900473ffffffffffffffffffffffffffffffffffffffff169050600073ffffffffffffffffffffffffffffffffffffffff168173ffffffffffffffffffffffffffffffffffffffff161415610ef7576040517f08c379a000000000000000000000000000000000000000000000000000000000815260040180806020018281038252600d8152602001807f4e6f41737365744578697374730000000000000000000000000000000000000081525060200191505060405180910390fd5b8092505050919050565b6040518060400160405280600554815260200182815250600860006005548152602001908152602001600020600082015181600001556020820151816001015590505081600a6000600554815260200190815260200160002081905550610f6a33600554611c70565b6001600554016005819055505050565b60008073ffffffffffffffffffffffffffffffffffffffff168273ffffffffffffffffffffffffffffffffffffffff161415611001576040517f08c379a000000000000000000000000000000000000000000000000000000000815260040180806020018281038252602a815260200180612296602a913960400191505060405180910390fd5b611048600360008473ffffffffffffffffffffffffffffffffffffffff1673ffffffffffffffffffffffffffffffffffffffff168152602001908152602001600020611de5565b9050919050565b3373ffffffffffffffffffffffffffffffffffffffff168273ffffffffffffffffffffffffffffffffffffffff1614156110f1576040517f08c379a00000000000000000000000000000000000000000000000000000000081526004018080602001828103825260198152602001807f4552433732313a20617070726f766520746f2063616c6c65720000000000000081525060200191505060405180910390fd5b80600460003373ffffffffffffffffffffffffffffffffffffffff1673ffffffffffffffffffffffffffffffffffffffff16815260200190815260200160002060008473ffffffffffffffffffffffffffffffffffffffff1673ffffffffffffffffffffffffffffffffffffffff16815260200190815260200160002060006101000a81548160ff0219169083151502179055508173ffffffffffffffffffffffffffffffffffffffff163373ffffffffffffffffffffffffffffffffffffffff167f17307eab39ab6107e8899845ad3d59bd9653f200f220920489ca2b5937696c3183604051808215151515815260200191505060405180910390a35050565b6001600760003373ffffffffffffffffffffffffffffffffffffffff1673ffffffffffffffffffffffffffffffffffffffff168152602001908152602001600020541461123e57600080fd5b8073ffffffffffffffffffffffffffffffffffffffff166009600085815260200190815260200160002060009054906101000a900473ffffffffffffffffffffffffffffffffffffffff1673ffffffffffffffffffffffffffffffffffffffff1614611312576040517f08c379a00000000000000000000000000000000000000000000000000000000081526004018080602001828103825260118152602001807f4e6f745468655265636970654f776e657200000000000000000000000000000081525060200191505060405180910390fd5b816009600085815260200190815260200160002060006101000a81548173ffffffffffffffffffffffffffffffffffffffff021916908373ffffffffffffffffffffffffffffffffffffffff1602179055508073ffffffffffffffffffffffffffffffffffffffff166108fc349081150290604051600060405180830381858888f193505050501580156113aa573d6000803e3d6000fd5b508073ffffffffffffffffffffffffffffffffffffffff168273ffffffffffffffffffffffffffffffffffffffff167fa6a37d3abef4786d38dbd76e243dd347c9b8861e30760d2890a6e1d2bfab9bef856040518082815260200191505060405180910390a3505050565b611420848484610c80565b61142c84848484611df3565b611481576040517f08c379a00000000000000000000000000000000000000000000000000000000081526004018080602001828103825260328152602001806121dc6032913960400191505060405180910390fd5b50505050565b6001600760008473ffffffffffffffffffffffffffffffffffffffff1673ffffffffffffffffffffffffffffffffffffffff1681526020019081526020016000205414611538578173ffffffffffffffffffffffffffffffffffffffff168373ffffffffffffffffffffffffffffffffffffffff167f8f61f052537f0bf056f967804f44154393ca499d4bf2a9b37cd68a4dd6c49b41836040518082815260200191505060405180910390a3600080fd5b8273ffffffffffffffffffffffffffffffffffffffff166009600083815260200190815260200160002060009054906101000a900473ffffffffffffffffffffffffffffffffffffffff1673ffffffffffffffffffffffffffffffffffffffff1614611608578173ffffffffffffffffffffffffffffffffffffffff168373ffffffffffffffffffffffffffffffffffffffff167f8f61f052537f0bf056f967804f44154393ca499d4bf2a9b37cd68a4dd6c49b41836040518082815260200191505060405180910390a3600080fd5b336009600083815260200190815260200160002060006101000a81548173ffffffffffffffffffffffffffffffffffffffff021916908373ffffffffffffffffffffffffffffffffffffffff1602179055508173ffffffffffffffffffffffffffffffffffffffff168373ffffffffffffffffffffffffffffffffffffffff167f8103e86d08623c78d70b23f063c1fa005aa6b8b12351ac531884890653656578836040518082815260200191505060405180910390a3505050565b6000600460008473ffffffffffffffffffffffffffffffffffffffff1673ffffffffffffffffffffffffffffffffffffffff16815260200190815260200160002060008373ffffffffffffffffffffffffffffffffffffffff1673ffffffffffffffffffffffffffffffffffffffff16815260200190815260200160002060009054906101000a900460ff16905092915050565b600660009054906101000a900473ffffffffffffffffffffffffffffffffffffffff1673ffffffffffffffffffffffffffffffffffffffff163373ffffffffffffffffffffffffffffffffffffffff16146117b257600080fd5b6000600760008373ffffffffffffffffffffffffffffffffffffffff1673ffffffffffffffffffffffffffffffffffffffff1681526020019081526020016000205414611867576040517f08c379a00000000000000000000000000000000000000000000000000000000081526004018080602001828103825260138152602001807f55736572206e6f7420726567697374657265640000000000000000000000000081525060200191505060405180910390fd5b6000600760008373ffffffffffffffffffffffffffffffffffffffff1673ffffffffffffffffffffffffffffffffffffffff1681526020019081526020016000208190555050565b6000806001600084815260200190815260200160002060009054906101000a900473ffffffffffffffffffffffffffffffffffffffff169050600073ffffffffffffffffffffffffffffffffffffffff168173ffffffffffffffffffffffffffffffffffffffff161415915050919050565b600061192c826118af565b611981576040517f08c379a000000000000000000000000000000000000000000000000000000000815260040180806020018281038252602c815260200180612232602c913960400191505060405180910390fd5b600061198c83610dae565b90508073ffffffffffffffffffffffffffffffffffffffff168473ffffffffffffffffffffffffffffffffffffffff1614806119fb57508373ffffffffffffffffffffffffffffffffffffffff166119e3846109c5565b73ffffffffffffffffffffffffffffffffffffffff16145b80611a0c5750611a0b81856116c4565b5b91505092915050565b8273ffffffffffffffffffffffffffffffffffffffff16611a3582610dae565b73ffffffffffffffffffffffffffffffffffffffff1614611aa1576040517f08c379a00000000000000000000000000000000000000000000000000000000081526004018080602001828103825260298152602001806122ec6029913960400191505060405180910390fd5b600073ffffffffffffffffffffffffffffffffffffffff168273ffffffffffffffffffffffffffffffffffffffff161415611b27576040517f08c379a000000000000000000000000000000000000000000000000000000000815260040180806020018281038252602481526020018061220e6024913960400191505060405180910390fd5b611b3081611fdc565b611b77600360008573ffffffffffffffffffffffffffffffffffffffff1673ffffffffffffffffffffffffffffffffffffffff16815260200190815260200160002061209a565b611bbe600360008473ffffffffffffffffffffffffffffffffffffffff1673ffffffffffffffffffffffffffffffffffffffff1681526020019081526020016000206120bd565b816001600083815260200190815260200160002060006101000a81548173ffffffffffffffffffffffffffffffffffffffff021916908373ffffffffffffffffffffffffffffffffffffffff160217905550808273ffffffffffffffffffffffffffffffffffffffff168473ffffffffffffffffffffffffffffffffffffffff167fddf252ad1be2c89b69c2b068fc378daa952ba7f163c4a11628f55a4df523b3ef60405160405180910390a4505050565b600073ffffffffffffffffffffffffffffffffffffffff168273ffffffffffffffffffffffffffffffffffffffff161415611d13576040517f08c379a00000000000000000000000000000000000000000000000000000000081526004018080602001828103825260138152602001807f5a65726f416464726573734d696e6974696e670000000000000000000000000081525060200191505060405180910390fd5b611d1c816120d3565b15611d8f576040517f08c379a000000000000000000000000000000000000000000000000000000000815260040180806020018281038252600d8152602001807f416c72656164794d696e7465640000000000000000000000000000000000000081525060200191505060405180910390fd5b816009600083815260200190815260200160002060006101000a81548173ffffffffffffffffffffffffffffffffffffffff021916908373ffffffffffffffffffffffffffffffffffffffff1602179055505050565b600081600001549050919050565b6000611e148473ffffffffffffffffffffffffffffffffffffffff1661213f565b611e215760019050611fd4565b60008473ffffffffffffffffffffffffffffffffffffffff1663150b7a02338887876040518563ffffffff1660e01b8152600401808573ffffffffffffffffffffffffffffffffffffffff1673ffffffffffffffffffffffffffffffffffffffff1681526020018473ffffffffffffffffffffffffffffffffffffffff1673ffffffffffffffffffffffffffffffffffffffff16815260200183815260200180602001828103825283818151815260200191508051906020019080838360005b83811015611efc578082015181840152602081019050611ee1565b50505050905090810190601f168015611f295780820380516001836020036101000a031916815260200191505b5095505050505050602060405180830381600087803b158015611f4b57600080fd5b505af1158015611f5f573d6000803e3d6000fd5b505050506040513d6020811015611f7557600080fd5b8101908080519060200190929190505050905063150b7a0260e01b7bffffffffffffffffffffffffffffffffffffffffffffffffffffffff1916817bffffffffffffffffffffffffffffffffffffffffffffffffffffffff1916149150505b949350505050565b600073ffffffffffffffffffffffffffffffffffffffff166002600083815260200190815260200160002060009054906101000a900473ffffffffffffffffffffffffffffffffffffffff1673ffffffffffffffffffffffffffffffffffffffff16146120975760006002600083815260200190815260200160002060006101000a81548173ffffffffffffffffffffffffffffffffffffffff021916908373ffffffffffffffffffffffffffffffffffffffff1602179055505b50565b6120b26001826000015461215290919063ffffffff16565b816000018190555050565b6001816000016000828254019250508190555050565b60008073ffffffffffffffffffffffffffffffffffffffff166009600084815260200190815260200160002060009054906101000a900473ffffffffffffffffffffffffffffffffffffffff1673ffffffffffffffffffffffffffffffffffffffff1614159050919050565b600080823b905060008111915050919050565b6000828211156121ca576040517f08c379a000000000000000000000000000000000000000000000000000000000815260040180806020018281038252601e8152602001807f536166654d6174683a207375627472616374696f6e206f766572666c6f77000081525060200191505060405180910390fd5b60008284039050809150509291505056fe4552433732313a207472616e7366657220746f206e6f6e20455243373231526563656976657220696d706c656d656e7465724552433732313a207472616e7366657220746f20746865207a65726f20616464726573734552433732313a206f70657261746f7220717565727920666f72206e6f6e6578697374656e7420746f6b656e4552433732313a20617070726f76652063616c6c6572206973206e6f74206f776e6572206e6f7220617070726f76656420666f7220616c6c4552433732313a2062616c616e636520717565727920666f7220746865207a65726f20616464726573734552433732313a20617070726f76656420717565727920666f72206e6f6e6578697374656e7420746f6b656e4552433732313a207472616e73666572206f6620746f6b656e2074686174206973206e6f74206f776e4552433732313a20617070726f76616c20746f2063757272656e74206f776e65724552433732313a207472616e736665722063616c6c6572206973206e6f74206f776e6572206e6f7220617070726f766564a165627a7a7230582048c21cd5ffa76032b469cb3df9234f9057d0f7abd630c1fdd24b1e955461c7970029",
  "source": "//SPDX-License-Identifier: UNLICENSED\npragma solidity >=0.4.22 <0.9.0;\nimport \"./helper_contracts/ERC721.sol\";\n\ncontract CulinaryLegacyRecipe is ERC721{\n    //##############Data Structure#####################\n\tstruct Recipe {\n        uint256 recipeID; \n        uint256 price;\n    }\n\n    uint256 public recipeCounts; //increment id for recipe\n\n    address public contract_owner;\n    mapping(address => uint256) registeredUser; //keeping track registered user (address => 0/1)\n    mapping(uint256 => Recipe) recipeMap; // recipeId -> recipe object\n    mapping(uint256 => address) recipeOwner; //recipeId -> creator // different recipeId shares the same creator\n    mapping(uint256 => uint256) recipeNames; //recipeID -> id given by users\n\n    //#########Event and Modifier##############\n    \n    //Events\n    event Transfer(address indexed from, address indexed to, uint256 indexed tokenId);\n    event recipeRequestCompleted(address indexed seller, address indexed buyer, uint recipeID); \n    event recipeRequestDenied(address indexed seller, address indexed buyer, uint recipeID); \n    event recipeRequest(address indexed seller, address indexed buyer, uint recipeID); \n\n    modifier onlyContractOwner(){\n        require(msg.sender == contract_owner);\n        _;\n    }\n    modifier onlyRecipeOwner(uint recipdeId){\n        require(msg.sender == recipeOwner[recipdeId]);\n        _;\n    }\n    modifier onlyRegisteredUser(){\n        require(registeredUser[msg.sender] == 1);\n        _;\n    }\n\n    //#########Functions###############\n    constructor() public{\n        contract_owner = msg.sender;\n    }\n\n    function register() public {\n        registeredUser[msg.sender] = 1;\n    }\n\n    function unregisterMember(address userID) onlyContractOwner public{\n        require(registeredUser[userID] == 0, \"User not registered\"); \n        registeredUser[userID] = 0;\n    }\n    \n    //self-unregister onself from the contract\n    function selfUnregister() public onlyRegisteredUser{\n        if (msg.sender != contract_owner){\n            registeredUser[msg.sender] = 0;\n        }\n    }\n    \n    //Create new recipe for sale\n    function addRecipe(uint id, uint price) public {\n        recipeMap[recipeCounts] = Recipe(recipeCounts, price);\n        recipeNames[recipeCounts] = id; \n        mint(msg.sender,recipeCounts);\n        recipeCounts = recipeCounts+1;\n    }\n    \n    function request(uint recipeID, address buyer, address payable seller) onlyRegisteredUser payable public{\n        require(recipeOwner[recipeID] == seller, \"NotTheRecipeOwner\");\n        recipeOwner[recipeID]=buyer;\n        seller.transfer(msg.value);\n        emit recipeRequest(buyer, seller, recipeID);\n    }\n\n    function response(address fromSeller, address toBuyer, uint recipeID) public{\n        // if buyer not registered -> revert + announce cancellation \n        if (registeredUser[toBuyer] != 1) {\n            emit recipeRequestDenied(fromSeller, toBuyer, recipeID);\n            revert(); \n        } \n        // if seller does not own recipe -> cancel (for some reason the onlyRecipeOwner is triggering the compiler??)\n        if (recipeOwner[recipeID] != fromSeller) {\n            emit recipeRequestDenied(fromSeller, toBuyer, recipeID);\n            revert(); \n        }\n        // else -> announce completion + transfer ownership \n        recipeOwner[recipeID] = msg.sender; \n        emit recipeRequestCompleted(fromSeller,toBuyer,recipeID);\n    }\n\n    function terminateContract () onlyContractOwner public{\n        selfdestruct(msg.sender);\n    }\n\n    //for testing purpose\n    function ownerOf(uint256 recipeId) onlyRecipeOwner(recipeId) public view returns (address) {\n        address owner = recipeOwner[recipeId];\n        require(owner != address(0), \"NoAssetExists\");\n        return owner;\n    }\n\n    //########Functions used by other functions##################\n    function mint(address to, uint256 recipeId) internal {\n        require(to != address(0), \"ZeroAddressMiniting\");\n        require(!exists(recipeId), \"AlreadyMinted\");\n        recipeOwner[recipeId] = to;\n        //emit Transfer(address(0), to, assetId);\n    }\n    function exists(uint256 recipeId) internal view returns (bool) {\n        return recipeOwner[recipeId] != address(0);\n    }\n}",
  "sourcePath": "/Users/Pan2k17/Desktop/426Block/project/CulinaryLegacy/culinary-contract/contracts/Culinary.sol",
  "compiler": {
    "name": "solc",
    "version": "0.5.8+commit.23d335f2.Emscripten.clang"
  },
  "schemaVersion": "3.4.13",
  "updatedAt": "2023-05-08T20:01:46.612Z",
  "networkType": "ethereum",
  "devdoc": {
    "methods": {
      "approve(address,uint256)": {
        "details": "Approves another address to transfer the given token ID The zero address indicates there is no approved address. There can only be one approved address per token at a given time. Can only be called by the token owner or an approved operator.",
        "params": {
          "to": "address to be approved for the given token ID",
          "tokenId": "uint256 ID of the token to be approved"
        }
      },
      "balanceOf(address)": {
        "details": "Gets the balance of the specified address.",
        "params": {
          "owner": "address to query the balance of"
        },
        "return": "uint256 representing the amount owned by the passed address"
      },
      "getApproved(uint256)": {
        "details": "Gets the approved address for a token ID, or zero if no address set Reverts if the token ID does not exist.",
        "params": {
          "tokenId": "uint256 ID of the token to query the approval of"
        },
        "return": "address currently approved for the given token ID"
      },
      "isApprovedForAll(address,address)": {
        "details": "Tells whether an operator is approved by a given owner.",
        "params": {
          "operator": "operator address which you want to query the approval of",
          "owner": "owner address which you want to query the approval of"
        },
        "return": "bool whether the given operator is approved by the given owner"
      },
      "safeTransferFrom(address,address,uint256)": {
        "details": "Safely transfers the ownership of a given token ID to another address If the target address is a contract, it must implement `onERC721Received`, which is called upon a safe transfer, and return the magic value `bytes4(keccak256(\"onERC721Received(address,address,uint256,bytes)\"))`; otherwise, the transfer is reverted. Requires the msg.sender to be the owner, approved, or operator",
        "params": {
          "from": "current owner of the token",
          "to": "address to receive the ownership of the given token ID",
          "tokenId": "uint256 ID of the token to be transferred"
        }
      },
      "safeTransferFrom(address,address,uint256,bytes)": {
        "details": "Safely transfers the ownership of a given token ID to another address If the target address is a contract, it must implement `onERC721Received`, which is called upon a safe transfer, and return the magic value `bytes4(keccak256(\"onERC721Received(address,address,uint256,bytes)\"))`; otherwise, the transfer is reverted. Requires the msg.sender to be the owner, approved, or operator",
        "params": {
          "_data": "bytes data to send along with a safe transfer check",
          "from": "current owner of the token",
          "to": "address to receive the ownership of the given token ID",
          "tokenId": "uint256 ID of the token to be transferred"
        }
      },
      "setApprovalForAll(address,bool)": {
        "details": "Sets or unsets the approval of a given operator An operator is allowed to transfer all tokens of the sender on their behalf.",
        "params": {
          "approved": "representing the status of the approval to be set",
          "to": "operator address to set the approval"
        }
      },
      "supportsInterface(bytes4)": {
        "details": "See `IERC165.supportsInterface`.     * Time complexity O(1), guaranteed to always use less than 30 000 gas."
      },
      "transferFrom(address,address,uint256)": {
        "details": "Transfers the ownership of a given token ID to another address. Usage of this method is discouraged, use `safeTransferFrom` whenever possible. Requires the msg.sender to be the owner, approved, or operator.",
        "params": {
          "from": "current owner of the token",
          "to": "address to receive the ownership of the given token ID",
          "tokenId": "uint256 ID of the token to be transferred"
        }
      }
    }
  },
  "userdoc": {
    "methods": {}
  }
}